{
  "_format": "hh-sol-artifact-1",
  "contractName": "MyNFTContract",
  "sourceName": "contracts/abcnft.sol",
  "abi": [
    {
      "inputs": [
        {
          "internalType": "string",
          "name": "name",
          "type": "string"
        },
        {
          "internalType": "string",
          "name": "symbol",
          "type": "string"
        },
        {
          "internalType": "string",
          "name": "description",
          "type": "string"
        }
      ],
      "stateMutability": "nonpayable",
      "type": "constructor"
    },
    {
      "anonymous": false,
      "inputs": [
        {
          "indexed": true,
          "internalType": "address",
          "name": "owner",
          "type": "address"
        },
        {
          "indexed": true,
          "internalType": "address",
          "name": "approved",
          "type": "address"
        },
        {
          "indexed": true,
          "internalType": "uint256",
          "name": "tokenId",
          "type": "uint256"
        }
      ],
      "name": "Approval",
      "type": "event"
    },
    {
      "anonymous": false,
      "inputs": [
        {
          "indexed": true,
          "internalType": "address",
          "name": "owner",
          "type": "address"
        },
        {
          "indexed": true,
          "internalType": "address",
          "name": "operator",
          "type": "address"
        },
        {
          "indexed": false,
          "internalType": "bool",
          "name": "approved",
          "type": "bool"
        }
      ],
      "name": "ApprovalForAll",
      "type": "event"
    },
    {
      "anonymous": false,
      "inputs": [
        {
          "indexed": false,
          "internalType": "uint256",
          "name": "_fromTokenId",
          "type": "uint256"
        },
        {
          "indexed": false,
          "internalType": "uint256",
          "name": "_toTokenId",
          "type": "uint256"
        }
      ],
      "name": "BatchMetadataUpdate",
      "type": "event"
    },
    {
      "anonymous": false,
      "inputs": [
        {
          "indexed": false,
          "internalType": "uint256",
          "name": "_tokenId",
          "type": "uint256"
        }
      ],
      "name": "MetadataUpdate",
      "type": "event"
    },
    {
      "anonymous": false,
      "inputs": [
        {
          "indexed": true,
          "internalType": "address",
          "name": "previousOwner",
          "type": "address"
        },
        {
          "indexed": true,
          "internalType": "address",
          "name": "newOwner",
          "type": "address"
        }
      ],
      "name": "OwnershipTransferred",
      "type": "event"
    },
    {
      "anonymous": false,
      "inputs": [
        {
          "indexed": true,
          "internalType": "address",
          "name": "from",
          "type": "address"
        },
        {
          "indexed": true,
          "internalType": "address",
          "name": "to",
          "type": "address"
        },
        {
          "indexed": true,
          "internalType": "uint256",
          "name": "tokenId",
          "type": "uint256"
        }
      ],
      "name": "Transfer",
      "type": "event"
    },
    {
      "inputs": [
        {
          "internalType": "address",
          "name": "to",
          "type": "address"
        },
        {
          "internalType": "uint256",
          "name": "tokenId",
          "type": "uint256"
        }
      ],
      "name": "approve",
      "outputs": [],
      "stateMutability": "nonpayable",
      "type": "function"
    },
    {
      "inputs": [
        {
          "internalType": "address",
          "name": "owner",
          "type": "address"
        }
      ],
      "name": "balanceOf",
      "outputs": [
        {
          "internalType": "uint256",
          "name": "",
          "type": "uint256"
        }
      ],
      "stateMutability": "view",
      "type": "function"
    },
    {
      "inputs": [
        {
          "internalType": "uint256",
          "name": "tokenId",
          "type": "uint256"
        }
      ],
      "name": "getApproved",
      "outputs": [
        {
          "internalType": "address",
          "name": "",
          "type": "address"
        }
      ],
      "stateMutability": "view",
      "type": "function"
    },
    {
      "inputs": [],
      "name": "getNFTDescription",
      "outputs": [
        {
          "internalType": "string",
          "name": "",
          "type": "string"
        }
      ],
      "stateMutability": "view",
      "type": "function"
    },
    {
      "inputs": [
        {
          "internalType": "address",
          "name": "owner",
          "type": "address"
        },
        {
          "internalType": "address",
          "name": "operator",
          "type": "address"
        }
      ],
      "name": "isApprovedForAll",
      "outputs": [
        {
          "internalType": "bool",
          "name": "",
          "type": "bool"
        }
      ],
      "stateMutability": "view",
      "type": "function"
    },
    {
      "inputs": [
        {
          "internalType": "address",
          "name": "to",
          "type": "address"
        },
        {
          "internalType": "string",
          "name": "tokenURI",
          "type": "string"
        }
      ],
      "name": "mintNFT",
      "outputs": [
        {
          "internalType": "uint256",
          "name": "",
          "type": "uint256"
        }
      ],
      "stateMutability": "nonpayable",
      "type": "function"
    },
    {
      "inputs": [],
      "name": "name",
      "outputs": [
        {
          "internalType": "string",
          "name": "",
          "type": "string"
        }
      ],
      "stateMutability": "view",
      "type": "function"
    },
    {
      "inputs": [],
      "name": "owner",
      "outputs": [
        {
          "internalType": "address",
          "name": "",
          "type": "address"
        }
      ],
      "stateMutability": "view",
      "type": "function"
    },
    {
      "inputs": [
        {
          "internalType": "uint256",
          "name": "tokenId",
          "type": "uint256"
        }
      ],
      "name": "ownerOf",
      "outputs": [
        {
          "internalType": "address",
          "name": "",
          "type": "address"
        }
      ],
      "stateMutability": "view",
      "type": "function"
    },
    {
      "inputs": [],
      "name": "renounceOwnership",
      "outputs": [],
      "stateMutability": "nonpayable",
      "type": "function"
    },
    {
      "inputs": [
        {
          "internalType": "address",
          "name": "from",
          "type": "address"
        },
        {
          "internalType": "address",
          "name": "to",
          "type": "address"
        },
        {
          "internalType": "uint256",
          "name": "tokenId",
          "type": "uint256"
        }
      ],
      "name": "safeTransferFrom",
      "outputs": [],
      "stateMutability": "nonpayable",
      "type": "function"
    },
    {
      "inputs": [
        {
          "internalType": "address",
          "name": "from",
          "type": "address"
        },
        {
          "internalType": "address",
          "name": "to",
          "type": "address"
        },
        {
          "internalType": "uint256",
          "name": "tokenId",
          "type": "uint256"
        },
        {
          "internalType": "bytes",
          "name": "data",
          "type": "bytes"
        }
      ],
      "name": "safeTransferFrom",
      "outputs": [],
      "stateMutability": "nonpayable",
      "type": "function"
    },
    {
      "inputs": [
        {
          "internalType": "address",
          "name": "operator",
          "type": "address"
        },
        {
          "internalType": "bool",
          "name": "approved",
          "type": "bool"
        }
      ],
      "name": "setApprovalForAll",
      "outputs": [],
      "stateMutability": "nonpayable",
      "type": "function"
    },
    {
      "inputs": [
        {
          "internalType": "bytes4",
          "name": "interfaceId",
          "type": "bytes4"
        }
      ],
      "name": "supportsInterface",
      "outputs": [
        {
          "internalType": "bool",
          "name": "",
          "type": "bool"
        }
      ],
      "stateMutability": "view",
      "type": "function"
    },
    {
      "inputs": [],
      "name": "symbol",
      "outputs": [
        {
          "internalType": "string",
          "name": "",
          "type": "string"
        }
      ],
      "stateMutability": "view",
      "type": "function"
    },
    {
      "inputs": [
        {
          "internalType": "uint256",
          "name": "tokenId",
          "type": "uint256"
        }
      ],
      "name": "tokenURI",
      "outputs": [
        {
          "internalType": "string",
          "name": "",
          "type": "string"
        }
      ],
      "stateMutability": "view",
      "type": "function"
    },
    {
      "inputs": [
        {
          "internalType": "address",
          "name": "from",
          "type": "address"
        },
        {
          "internalType": "address",
          "name": "to",
          "type": "address"
        },
        {
          "internalType": "uint256",
          "name": "tokenId",
          "type": "uint256"
        }
      ],
      "name": "transferFrom",
      "outputs": [],
      "stateMutability": "nonpayable",
      "type": "function"
    },
    {
      "inputs": [
        {
          "internalType": "address",
          "name": "newOwner",
          "type": "address"
        }
      ],
      "name": "transferOwnership",
      "outputs": [],
      "stateMutability": "nonpayable",
      "type": "function"
    },
    {
      "inputs": [
        {
          "internalType": "string",
          "name": "newDescription",
          "type": "string"
        }
      ],
      "name": "updateDescription",
      "outputs": [],
      "stateMutability": "nonpayable",
      "type": "function"
    }
  ],
  "bytecode": "0x60806040523480156200001157600080fd5b506040516200335a3803806200335a83398181016040528101906200003791906200029f565b82828160009080519060200190620000519291906200017d565b5080600190805190602001906200006a9291906200017d565b5050506200008d62000081620000af60201b60201c565b620000b760201b60201c565b8060099080519060200190620000a59291906200017d565b50505050620004b0565b600033905090565b6000600760009054906101000a900473ffffffffffffffffffffffffffffffffffffffff16905081600760006101000a81548173ffffffffffffffffffffffffffffffffffffffff021916908373ffffffffffffffffffffffffffffffffffffffff1602179055508173ffffffffffffffffffffffffffffffffffffffff168173ffffffffffffffffffffffffffffffffffffffff167f8be0079c531659141344cd1fd0a4f28419497f9722a3daafe3b4186f6b6457e060405160405180910390a35050565b8280546200018b90620003d5565b90600052602060002090601f016020900481019282620001af5760008555620001fb565b82601f10620001ca57805160ff1916838001178555620001fb565b82800160010185558215620001fb579182015b82811115620001fa578251825591602001919060010190620001dd565b5b5090506200020a91906200020e565b5090565b5b80821115620002295760008160009055506001016200020f565b5090565b6000620002446200023e8462000369565b62000340565b9050828152602081018484840111156200025d57600080fd5b6200026a8482856200039f565b509392505050565b600082601f8301126200028457600080fd5b8151620002968482602086016200022d565b91505092915050565b600080600060608486031215620002b557600080fd5b600084015167ffffffffffffffff811115620002d057600080fd5b620002de8682870162000272565b935050602084015167ffffffffffffffff811115620002fc57600080fd5b6200030a8682870162000272565b925050604084015167ffffffffffffffff8111156200032857600080fd5b620003368682870162000272565b9150509250925092565b60006200034c6200035f565b90506200035a82826200040b565b919050565b6000604051905090565b600067ffffffffffffffff82111562000387576200038662000470565b5b62000392826200049f565b9050602081019050919050565b60005b83811015620003bf578082015181840152602081019050620003a2565b83811115620003cf576000848401525b50505050565b60006002820490506001821680620003ee57607f821691505b6020821081141562000405576200040462000441565b5b50919050565b62000416826200049f565b810181811067ffffffffffffffff8211171562000438576200043762000470565b5b80604052505050565b7f4e487b7100000000000000000000000000000000000000000000000000000000600052602260045260246000fd5b7f4e487b7100000000000000000000000000000000000000000000000000000000600052604160045260246000fd5b6000601f19601f8301169050919050565b612e9a80620004c06000396000f3fe608060405234801561001057600080fd5b50600436106101215760003560e01c8063715018a6116100ad578063c87b56dd11610071578063c87b56dd146102f4578063e735b48a14610324578063e985e9c514610340578063eacabe1414610370578063f2fde38b146103a057610121565b8063715018a6146102765780638da5cb5b1461028057806395d89b411461029e578063a22cb465146102bc578063b88d4fde146102d857610121565b806323b872dd116100f457806323b872dd146101c057806340ba82ab146101dc57806342842e0e146101fa5780636352211e1461021657806370a082311461024657610121565b806301ffc9a71461012657806306fdde0314610156578063081812fc14610174578063095ea7b3146101a4575b600080fd5b610140600480360381019061013b9190612209565b6103bc565b60405161014d919061260a565b60405180910390f35b61015e61041d565b60405161016b9190612625565b60405180910390f35b61018e6004803603810190610189919061229c565b6104af565b60405161019b91906125a3565b60405180910390f35b6101be60048036038101906101b991906121cd565b6104f5565b005b6101da60048036038101906101d59190612073565b61060d565b005b6101e461066d565b6040516101f19190612625565b60405180910390f35b610214600480360381019061020f9190612073565b6106ff565b005b610230600480360381019061022b919061229c565b61071f565b60405161023d91906125a3565b60405180910390f35b610260600480360381019061025b919061200e565b6107a6565b60405161026d9190612807565b60405180910390f35b61027e61085e565b005b610288610872565b60405161029591906125a3565b60405180910390f35b6102a661089c565b6040516102b39190612625565b60405180910390f35b6102d660048036038101906102d1919061213d565b61092e565b005b6102f260048036038101906102ed91906120c2565b610944565b005b61030e6004803603810190610309919061229c565b6109a6565b60405161031b9190612625565b60405180910390f35b61033e6004803603810190610339919061225b565b610ab9565b005b61035a60048036038101906103559190612037565b610adb565b604051610367919061260a565b60405180910390f35b61038a60048036038101906103859190612179565b610b6f565b6040516103979190612807565b60405180910390f35b6103ba60048036038101906103b5919061200e565b610baf565b005b6000634906490660e01b7bffffffffffffffffffffffffffffffffffffffffffffffffffffffff1916827bffffffffffffffffffffffffffffffffffffffffffffffffffffffff19161480610416575061041582610c33565b5b9050919050565b60606000805461042c906129a2565b80601f0160208091040260200160405190810160405280929190818152602001828054610458906129a2565b80156104a55780601f1061047a576101008083540402835291602001916104a5565b820191906000526020600020905b81548152906001019060200180831161048857829003601f168201915b5050505050905090565b60006104ba82610d15565b6004600083815260200190815260200160002060009054906101000a900473ffffffffffffffffffffffffffffffffffffffff169050919050565b60006105008261071f565b90508073ffffffffffffffffffffffffffffffffffffffff168373ffffffffffffffffffffffffffffffffffffffff161415610571576040517f08c379a0000000000000000000000000000000000000000000000000000000008152600401610568906127c7565b60405180910390fd5b8073ffffffffffffffffffffffffffffffffffffffff16610590610d60565b73ffffffffffffffffffffffffffffffffffffffff1614806105bf57506105be816105b9610d60565b610adb565b5b6105fe576040517f08c379a00000000000000000000000000000000000000000000000000000000081526004016105f5906127e7565b60405180910390fd5b6106088383610d68565b505050565b61061e610618610d60565b82610e21565b61065d576040517f08c379a000000000000000000000000000000000000000000000000000000000815260040161065490612647565b60405180910390fd5b610668838383610eb6565b505050565b60606009805461067c906129a2565b80601f01602080910402602001604051908101604052809291908181526020018280546106a8906129a2565b80156106f55780601f106106ca576101008083540402835291602001916106f5565b820191906000526020600020905b8154815290600101906020018083116106d857829003601f168201915b5050505050905090565b61071a83838360405180602001604052806000815250610944565b505050565b60008061072b836111b0565b9050600073ffffffffffffffffffffffffffffffffffffffff168173ffffffffffffffffffffffffffffffffffffffff16141561079d576040517f08c379a0000000000000000000000000000000000000000000000000000000008152600401610794906127a7565b60405180910390fd5b80915050919050565b60008073ffffffffffffffffffffffffffffffffffffffff168273ffffffffffffffffffffffffffffffffffffffff161415610817576040517f08c379a000000000000000000000000000000000000000000000000000000000815260040161080e90612727565b60405180910390fd5b600360008373ffffffffffffffffffffffffffffffffffffffff1673ffffffffffffffffffffffffffffffffffffffff168152602001908152602001600020549050919050565b6108666111ed565b610870600061126b565b565b6000600760009054906101000a900473ffffffffffffffffffffffffffffffffffffffff16905090565b6060600180546108ab906129a2565b80601f01602080910402602001604051908101604052809291908181526020018280546108d7906129a2565b80156109245780601f106108f957610100808354040283529160200191610924565b820191906000526020600020905b81548152906001019060200180831161090757829003601f168201915b5050505050905090565b610940610939610d60565b8383611331565b5050565b61095561094f610d60565b83610e21565b610994576040517f08c379a000000000000000000000000000000000000000000000000000000000815260040161098b90612647565b60405180910390fd5b6109a08484848461149e565b50505050565b60606109b182610d15565b60006006600084815260200190815260200160002080546109d1906129a2565b80601f01602080910402602001604051908101604052809291908181526020018280546109fd906129a2565b8015610a4a5780601f10610a1f57610100808354040283529160200191610a4a565b820191906000526020600020905b815481529060010190602001808311610a2d57829003601f168201915b505050505090506000610a5b6114fa565b9050600081511415610a71578192505050610ab4565b600082511115610aa6578082604051602001610a8e92919061257f565b60405160208183030381529060405292505050610ab4565b610aaf84611511565b925050505b919050565b610ac16111ed565b8060099080519060200190610ad7929190611e32565b5050565b6000600560008473ffffffffffffffffffffffffffffffffffffffff1673ffffffffffffffffffffffffffffffffffffffff16815260200190815260200160002060008373ffffffffffffffffffffffffffffffffffffffff1673ffffffffffffffffffffffffffffffffffffffff16815260200190815260200160002060009054906101000a900460ff16905092915050565b6000610b796111ed565b610b836008611579565b6000610b8f600861158f565b9050610b9b848261159d565b610ba581846117bb565b8091505092915050565b610bb76111ed565b600073ffffffffffffffffffffffffffffffffffffffff168173ffffffffffffffffffffffffffffffffffffffff161415610c27576040517f08c379a0000000000000000000000000000000000000000000000000000000008152600401610c1e90612687565b60405180910390fd5b610c308161126b565b50565b60007f80ac58cd000000000000000000000000000000000000000000000000000000007bffffffffffffffffffffffffffffffffffffffffffffffffffffffff1916827bffffffffffffffffffffffffffffffffffffffffffffffffffffffff19161480610cfe57507f5b5e139f000000000000000000000000000000000000000000000000000000007bffffffffffffffffffffffffffffffffffffffffffffffffffffffff1916827bffffffffffffffffffffffffffffffffffffffffffffffffffffffff1916145b80610d0e5750610d0d82611866565b5b9050919050565b610d1e816118d0565b610d5d576040517f08c379a0000000000000000000000000000000000000000000000000000000008152600401610d54906127a7565b60405180910390fd5b50565b600033905090565b816004600083815260200190815260200160002060006101000a81548173ffffffffffffffffffffffffffffffffffffffff021916908373ffffffffffffffffffffffffffffffffffffffff160217905550808273ffffffffffffffffffffffffffffffffffffffff16610ddb8361071f565b73ffffffffffffffffffffffffffffffffffffffff167f8c5be1e5ebec7d5bd14f71427d1e84f3dd0314c0f7b2291e5b200ac8c7c3b92560405160405180910390a45050565b600080610e2d8361071f565b90508073ffffffffffffffffffffffffffffffffffffffff168473ffffffffffffffffffffffffffffffffffffffff161480610e6f5750610e6e8185610adb565b5b80610ead57508373ffffffffffffffffffffffffffffffffffffffff16610e95846104af565b73ffffffffffffffffffffffffffffffffffffffff16145b91505092915050565b8273ffffffffffffffffffffffffffffffffffffffff16610ed68261071f565b73ffffffffffffffffffffffffffffffffffffffff1614610f2c576040517f08c379a0000000000000000000000000000000000000000000000000000000008152600401610f23906126a7565b60405180910390fd5b600073ffffffffffffffffffffffffffffffffffffffff168273ffffffffffffffffffffffffffffffffffffffff161415610f9c576040517f08c379a0000000000000000000000000000000000000000000000000000000008152600401610f93906126e7565b60405180910390fd5b610fa98383836001611911565b8273ffffffffffffffffffffffffffffffffffffffff16610fc98261071f565b73ffffffffffffffffffffffffffffffffffffffff161461101f576040517f08c379a0000000000000000000000000000000000000000000000000000000008152600401611016906126a7565b60405180910390fd5b6004600082815260200190815260200160002060006101000a81549073ffffffffffffffffffffffffffffffffffffffff02191690556001600360008573ffffffffffffffffffffffffffffffffffffffff1673ffffffffffffffffffffffffffffffffffffffff168152602001908152602001600020600082825403925050819055506001600360008473ffffffffffffffffffffffffffffffffffffffff1673ffffffffffffffffffffffffffffffffffffffff16815260200190815260200160002060008282540192505081905550816002600083815260200190815260200160002060006101000a81548173ffffffffffffffffffffffffffffffffffffffff021916908373ffffffffffffffffffffffffffffffffffffffff160217905550808273ffffffffffffffffffffffffffffffffffffffff168473ffffffffffffffffffffffffffffffffffffffff167fddf252ad1be2c89b69c2b068fc378daa952ba7f163c4a11628f55a4df523b3ef60405160405180910390a46111ab8383836001611917565b505050565b60006002600083815260200190815260200160002060009054906101000a900473ffffffffffffffffffffffffffffffffffffffff169050919050565b6111f5610d60565b73ffffffffffffffffffffffffffffffffffffffff16611213610872565b73ffffffffffffffffffffffffffffffffffffffff1614611269576040517f08c379a000000000000000000000000000000000000000000000000000000000815260040161126090612787565b60405180910390fd5b565b6000600760009054906101000a900473ffffffffffffffffffffffffffffffffffffffff16905081600760006101000a81548173ffffffffffffffffffffffffffffffffffffffff021916908373ffffffffffffffffffffffffffffffffffffffff1602179055508173ffffffffffffffffffffffffffffffffffffffff168173ffffffffffffffffffffffffffffffffffffffff167f8be0079c531659141344cd1fd0a4f28419497f9722a3daafe3b4186f6b6457e060405160405180910390a35050565b8173ffffffffffffffffffffffffffffffffffffffff168373ffffffffffffffffffffffffffffffffffffffff1614156113a0576040517f08c379a000000000000000000000000000000000000000000000000000000000815260040161139790612707565b60405180910390fd5b80600560008573ffffffffffffffffffffffffffffffffffffffff1673ffffffffffffffffffffffffffffffffffffffff16815260200190815260200160002060008473ffffffffffffffffffffffffffffffffffffffff1673ffffffffffffffffffffffffffffffffffffffff16815260200190815260200160002060006101000a81548160ff0219169083151502179055508173ffffffffffffffffffffffffffffffffffffffff168373ffffffffffffffffffffffffffffffffffffffff167f17307eab39ab6107e8899845ad3d59bd9653f200f220920489ca2b5937696c3183604051611491919061260a565b60405180910390a3505050565b6114a9848484610eb6565b6114b58484848461191d565b6114f4576040517f08c379a00000000000000000000000000000000000000000000000000000000081526004016114eb90612667565b60405180910390fd5b50505050565b606060405180602001604052806000815250905090565b606061151c82610d15565b60006115266114fa565b905060008151116115465760405180602001604052806000815250611571565b8061155084611ab4565b60405160200161156192919061257f565b6040516020818303038152906040525b915050919050565b6001816000016000828254019250508190555050565b600081600001549050919050565b600073ffffffffffffffffffffffffffffffffffffffff168273ffffffffffffffffffffffffffffffffffffffff16141561160d576040517f08c379a000000000000000000000000000000000000000000000000000000000815260040161160490612767565b60405180910390fd5b611616816118d0565b15611656576040517f08c379a000000000000000000000000000000000000000000000000000000000815260040161164d906126c7565b60405180910390fd5b611664600083836001611911565b61166d816118d0565b156116ad576040517f08c379a00000000000000000000000000000000000000000000000000000000081526004016116a4906126c7565b60405180910390fd5b6001600360008473ffffffffffffffffffffffffffffffffffffffff1673ffffffffffffffffffffffffffffffffffffffff16815260200190815260200160002060008282540192505081905550816002600083815260200190815260200160002060006101000a81548173ffffffffffffffffffffffffffffffffffffffff021916908373ffffffffffffffffffffffffffffffffffffffff160217905550808273ffffffffffffffffffffffffffffffffffffffff16600073ffffffffffffffffffffffffffffffffffffffff167fddf252ad1be2c89b69c2b068fc378daa952ba7f163c4a11628f55a4df523b3ef60405160405180910390a46117b7600083836001611917565b5050565b6117c4826118d0565b611803576040517f08c379a00000000000000000000000000000000000000000000000000000000081526004016117fa90612747565b60405180910390fd5b8060066000848152602001908152602001600020908051906020019061182a929190611e32565b507ff8e1a15aba9398e019f0b49df1a4fde98ee17ae345cb5f6b5e2c27f5033e8ce78260405161185a9190612807565b60405180910390a15050565b60007f01ffc9a7000000000000000000000000000000000000000000000000000000007bffffffffffffffffffffffffffffffffffffffffffffffffffffffff1916827bffffffffffffffffffffffffffffffffffffffffffffffffffffffff1916149050919050565b60008073ffffffffffffffffffffffffffffffffffffffff166118f2836111b0565b73ffffffffffffffffffffffffffffffffffffffff1614159050919050565b50505050565b50505050565b600061193e8473ffffffffffffffffffffffffffffffffffffffff16611bd8565b15611aa7578373ffffffffffffffffffffffffffffffffffffffff1663150b7a02611967610d60565b8786866040518563ffffffff1660e01b815260040161198994939291906125be565b602060405180830381600087803b1580156119a357600080fd5b505af19250505080156119d457506040513d601f19601f820116820180604052508101906119d19190612232565b60015b611a57573d8060008114611a04576040519150601f19603f3d011682016040523d82523d6000602084013e611a09565b606091505b50600081511415611a4f576040517f08c379a0000000000000000000000000000000000000000000000000000000008152600401611a4690612667565b60405180910390fd5b805181602001fd5b63150b7a0260e01b7bffffffffffffffffffffffffffffffffffffffffffffffffffffffff1916817bffffffffffffffffffffffffffffffffffffffffffffffffffffffff191614915050611aac565b600190505b949350505050565b606060006001611ac384611bfb565b01905060008167ffffffffffffffff811115611b08577f4e487b7100000000000000000000000000000000000000000000000000000000600052604160045260246000fd5b6040519080825280601f01601f191660200182016040528015611b3a5781602001600182028036833780820191505090505b509050600082602001820190505b600115611bcd578080600190039150507f3031323334353637383961626364656600000000000000000000000000000000600a86061a8153600a8581611bb7577f4e487b7100000000000000000000000000000000000000000000000000000000600052601260045260246000fd5b0494506000851415611bc857611bcd565b611b48565b819350505050919050565b6000808273ffffffffffffffffffffffffffffffffffffffff163b119050919050565b600080600090507a184f03e93ff9f4daa797ed6e38ed64bf6a1f0100000000000000008310611c7f577a184f03e93ff9f4daa797ed6e38ed64bf6a1f0100000000000000008381611c75577f4e487b7100000000000000000000000000000000000000000000000000000000600052601260045260246000fd5b0492506040810190505b6d04ee2d6d415b85acef81000000008310611ce2576d04ee2d6d415b85acef81000000008381611cd8577f4e487b7100000000000000000000000000000000000000000000000000000000600052601260045260246000fd5b0492506020810190505b662386f26fc100008310611d3757662386f26fc100008381611d2d577f4e487b7100000000000000000000000000000000000000000000000000000000600052601260045260246000fd5b0492506010810190505b6305f5e1008310611d86576305f5e1008381611d7c577f4e487b7100000000000000000000000000000000000000000000000000000000600052601260045260246000fd5b0492506008810190505b6127108310611dd1576127108381611dc7577f4e487b7100000000000000000000000000000000000000000000000000000000600052601260045260246000fd5b0492506004810190505b60648310611e1a5760648381611e10577f4e487b7100000000000000000000000000000000000000000000000000000000600052601260045260246000fd5b0492506002810190505b600a8310611e29576001810190505b80915050919050565b828054611e3e906129a2565b90600052602060002090601f016020900481019282611e605760008555611ea7565b82601f10611e7957805160ff1916838001178555611ea7565b82800160010185558215611ea7579182015b82811115611ea6578251825591602001919060010190611e8b565b5b509050611eb49190611eb8565b5090565b5b80821115611ed1576000816000905550600101611eb9565b5090565b6000611ee8611ee384612847565b612822565b905082815260208101848484011115611f0057600080fd5b611f0b848285612960565b509392505050565b6000611f26611f2184612878565b612822565b905082815260208101848484011115611f3e57600080fd5b611f49848285612960565b509392505050565b600081359050611f6081612e08565b92915050565b600081359050611f7581612e1f565b92915050565b600081359050611f8a81612e36565b92915050565b600081519050611f9f81612e36565b92915050565b600082601f830112611fb657600080fd5b8135611fc6848260208601611ed5565b91505092915050565b600082601f830112611fe057600080fd5b8135611ff0848260208601611f13565b91505092915050565b60008135905061200881612e4d565b92915050565b60006020828403121561202057600080fd5b600061202e84828501611f51565b91505092915050565b6000806040838503121561204a57600080fd5b600061205885828601611f51565b925050602061206985828601611f51565b9150509250929050565b60008060006060848603121561208857600080fd5b600061209686828701611f51565b93505060206120a786828701611f51565b92505060406120b886828701611ff9565b9150509250925092565b600080600080608085870312156120d857600080fd5b60006120e687828801611f51565b94505060206120f787828801611f51565b935050604061210887828801611ff9565b925050606085013567ffffffffffffffff81111561212557600080fd5b61213187828801611fa5565b91505092959194509250565b6000806040838503121561215057600080fd5b600061215e85828601611f51565b925050602061216f85828601611f66565b9150509250929050565b6000806040838503121561218c57600080fd5b600061219a85828601611f51565b925050602083013567ffffffffffffffff8111156121b757600080fd5b6121c385828601611fcf565b9150509250929050565b600080604083850312156121e057600080fd5b60006121ee85828601611f51565b92505060206121ff85828601611ff9565b9150509250929050565b60006020828403121561221b57600080fd5b600061222984828501611f7b565b91505092915050565b60006020828403121561224457600080fd5b600061225284828501611f90565b91505092915050565b60006020828403121561226d57600080fd5b600082013567ffffffffffffffff81111561228757600080fd5b61229384828501611fcf565b91505092915050565b6000602082840312156122ae57600080fd5b60006122bc84828501611ff9565b91505092915050565b6122ce816128ec565b82525050565b6122dd816128fe565b82525050565b60006122ee826128a9565b6122f881856128bf565b935061230881856020860161296f565b61231181612a63565b840191505092915050565b6000612327826128b4565b61233181856128d0565b935061234181856020860161296f565b61234a81612a63565b840191505092915050565b6000612360826128b4565b61236a81856128e1565b935061237a81856020860161296f565b80840191505092915050565b6000612393602d836128d0565b915061239e82612a74565b604082019050919050565b60006123b66032836128d0565b91506123c182612ac3565b604082019050919050565b60006123d96026836128d0565b91506123e482612b12565b604082019050919050565b60006123fc6025836128d0565b915061240782612b61565b604082019050919050565b600061241f601c836128d0565b915061242a82612bb0565b602082019050919050565b60006124426024836128d0565b915061244d82612bd9565b604082019050919050565b60006124656019836128d0565b915061247082612c28565b602082019050919050565b60006124886029836128d0565b915061249382612c51565b604082019050919050565b60006124ab602e836128d0565b91506124b682612ca0565b604082019050919050565b60006124ce6020836128d0565b91506124d982612cef565b602082019050919050565b60006124f16020836128d0565b91506124fc82612d18565b602082019050919050565b60006125146018836128d0565b915061251f82612d41565b602082019050919050565b60006125376021836128d0565b915061254282612d6a565b604082019050919050565b600061255a603d836128d0565b915061256582612db9565b604082019050919050565b61257981612956565b82525050565b600061258b8285612355565b91506125978284612355565b91508190509392505050565b60006020820190506125b860008301846122c5565b92915050565b60006080820190506125d360008301876122c5565b6125e060208301866122c5565b6125ed6040830185612570565b81810360608301526125ff81846122e3565b905095945050505050565b600060208201905061261f60008301846122d4565b92915050565b6000602082019050818103600083015261263f818461231c565b905092915050565b6000602082019050818103600083015261266081612386565b9050919050565b60006020820190508181036000830152612680816123a9565b9050919050565b600060208201905081810360008301526126a0816123cc565b9050919050565b600060208201905081810360008301526126c0816123ef565b9050919050565b600060208201905081810360008301526126e081612412565b9050919050565b6000602082019050818103600083015261270081612435565b9050919050565b6000602082019050818103600083015261272081612458565b9050919050565b600060208201905081810360008301526127408161247b565b9050919050565b600060208201905081810360008301526127608161249e565b9050919050565b60006020820190508181036000830152612780816124c1565b9050919050565b600060208201905081810360008301526127a0816124e4565b9050919050565b600060208201905081810360008301526127c081612507565b9050919050565b600060208201905081810360008301526127e08161252a565b9050919050565b600060208201905081810360008301526128008161254d565b9050919050565b600060208201905061281c6000830184612570565b92915050565b600061282c61283d565b905061283882826129d4565b919050565b6000604051905090565b600067ffffffffffffffff82111561286257612861612a34565b5b61286b82612a63565b9050602081019050919050565b600067ffffffffffffffff82111561289357612892612a34565b5b61289c82612a63565b9050602081019050919050565b600081519050919050565b600081519050919050565b600082825260208201905092915050565b600082825260208201905092915050565b600081905092915050565b60006128f782612936565b9050919050565b60008115159050919050565b60007fffffffff0000000000000000000000000000000000000000000000000000000082169050919050565b600073ffffffffffffffffffffffffffffffffffffffff82169050919050565b6000819050919050565b82818337600083830152505050565b60005b8381101561298d578082015181840152602081019050612972565b8381111561299c576000848401525b50505050565b600060028204905060018216806129ba57607f821691505b602082108114156129ce576129cd612a05565b5b50919050565b6129dd82612a63565b810181811067ffffffffffffffff821117156129fc576129fb612a34565b5b80604052505050565b7f4e487b7100000000000000000000000000000000000000000000000000000000600052602260045260246000fd5b7f4e487b7100000000000000000000000000000000000000000000000000000000600052604160045260246000fd5b6000601f19601f8301169050919050565b7f4552433732313a2063616c6c6572206973206e6f7420746f6b656e206f776e6560008201527f72206f7220617070726f76656400000000000000000000000000000000000000602082015250565b7f4552433732313a207472616e7366657220746f206e6f6e20455243373231526560008201527f63656976657220696d706c656d656e7465720000000000000000000000000000602082015250565b7f4f776e61626c653a206e6577206f776e657220697320746865207a65726f206160008201527f6464726573730000000000000000000000000000000000000000000000000000602082015250565b7f4552433732313a207472616e736665722066726f6d20696e636f72726563742060008201527f6f776e6572000000000000000000000000000000000000000000000000000000602082015250565b7f4552433732313a20746f6b656e20616c7265616479206d696e74656400000000600082015250565b7f4552433732313a207472616e7366657220746f20746865207a65726f2061646460008201527f7265737300000000000000000000000000000000000000000000000000000000602082015250565b7f4552433732313a20617070726f766520746f2063616c6c657200000000000000600082015250565b7f4552433732313a2061646472657373207a65726f206973206e6f74206120766160008201527f6c6964206f776e65720000000000000000000000000000000000000000000000602082015250565b7f45524337323155524953746f726167653a2055524920736574206f66206e6f6e60008201527f6578697374656e7420746f6b656e000000000000000000000000000000000000602082015250565b7f4552433732313a206d696e7420746f20746865207a65726f2061646472657373600082015250565b7f4f776e61626c653a2063616c6c6572206973206e6f7420746865206f776e6572600082015250565b7f4552433732313a20696e76616c696420746f6b656e2049440000000000000000600082015250565b7f4552433732313a20617070726f76616c20746f2063757272656e74206f776e6560008201527f7200000000000000000000000000000000000000000000000000000000000000602082015250565b7f4552433732313a20617070726f76652063616c6c6572206973206e6f7420746f60008201527f6b656e206f776e6572206f7220617070726f76656420666f7220616c6c000000602082015250565b612e11816128ec565b8114612e1c57600080fd5b50565b612e28816128fe565b8114612e3357600080fd5b50565b612e3f8161290a565b8114612e4a57600080fd5b50565b612e5681612956565b8114612e6157600080fd5b5056fea264697066735822122023091a6efe86c82f6a486170c8d262a401b8bc6b19fc202373caf8a3826c8c5d64736f6c63430008010033",
  "linkReferences": {},
  "deployedLinkReferences": {}
}